:020000040800F2
:100000000080012041100008090400080B040008CA
:100010000D0400080F04000811040008000000008F
:1000200000000000000000000000000013040008B1
:100030001504000800000000170400081904000857
:10004000911000089110000891100008911000080C
:1000500091100008911000089110000891100008FC
:1000600091100008911000089110000891100008EC
:1000700091100008911000089110000891100008DC
:100080009110000891100008911000080000000075
:1000900000000000000000000000000091100008B7
:1000A00091100008911000089110000891100008AC
:1000B000911000089110000891100008911000089C
:1000C000911000089110000891100008911000088C
:1000D0009110000891100008911000080000000025
:1000E0009110000891100008911000080000000015
:1000F0000000000000000000000000009110000857
:1001000000000000911000089110000891100008F4
:1001100000000000000000000000000000000000DF
:10012000911000089110000891100008911000082B
:100130009110000800000000000000000000000016
:100140000000000000000000000000009110000806
:1001500091100008911000089110000891100008FB
:10016000911000089110000800000000000000003D
:10017000000000000000000000000000000000007F
:1001800000000000911000080000000000000000C6
:0401900091100008C2
:1001940053B94AB9002908BF00281CBF4FF0FF31EA
:1001A4004FF0FF3000F00CB8ADF1080C6DE904CE4F
:1001B40000F09AFFDDF804E0DDE9022304B07047A3
:1001C400704700BF0348044B834202D0034B03B182
:1001D400184770470C0000200C00002000000000AD
:1001E4000548064B1B1AD90F01EBA301491002D095
:1001F400034B03B1184770470C0000200C0000208B
:100204000000000010B5064C237843B9FFF7DAFF6D
:10021400044B13B10448AFF300800123237010BDD5
:100224000C00002000000000B413000808B5054BC2
:100234001BB105490548AFF30080BDE80840FFF74E
:10024400CFBF00BF0000000010000020B41300085E
:1002540030B58BB00024059406940794089409944F
:100264000194224B1A6B42F004021A631A6B02F0D7
:1002740004020192019A02941A6B42F080021A63FA
:100284001A6B02F080020292029A03941A6B42F0F3
:1002940001021A631A6B02F001020392039A049496
:1002A4001A6B42F002021A631B6B03F002030493FD
:1002B400049B0F4D22462021284600F0E1FD4FF417
:1002C400005305934FF404130693079405A90948B2
:1002D40000F0F2FC2023059301230693079408946D
:1002E40005A9284600F0E8FC0BB030BD00380240F8
:1002F400000002400008024072B6FEE708B50A4852
:100304000A4B03604FF4E133436000238360C3600E
:1003140003610C2242618361C36100F05DF900B99D
:1003240008BDFFF7E9FF00BF28000020004400409B
:1003340000B595B03022002108A800F0CDFE0023BE
:10034400039304930593069307930193214A116C35
:1003540041F080511164126C02F080520192019AB2
:1003640002931D4A136823F4404343F4004313608B
:10037400136803F440430293029B012308934FF450
:10038400A023099302230E934FF480030F930823B1
:1003940010934FF4A8731193042312930723139318
:1003A40008A800F049F980B90F23039302210491AE
:1003B400002305934FF480520692079303A800F09C
:1003C400A5FB20B915B05DF804FBFFF795FFFFF717
:1003D40093FF00BF003802400070004008B500F0F1
:1003E400E3FDFFF7A5FFFFF733FFFFF787FF2021AA
:1003F400034800F04BFD4FF4FA7000F001FEF6E7FD
:1004040000000240FEE7FEE7FEE7FEE7FEE7704776
:100414007047704708B500F0E1FD08BD00B583B032
:10042400002100910C4B5A6C42F480425A645A6C7D
:1004340002F480420092009A01911A6C42F08052B8
:100444001A641B6C03F080530193019B072000F096
:1004540027FD03B05DF804FB0038024000B589B005
:100464000023039304930593069307930268144BA4
:100474009A4202D009B05DF804FB0021019103F512
:10048400FA331A6C42F400321A641A6C02F4003221
:100494000192019A02911A6B42F001021A631B6BDA
:1004A40003F001030293029B0C230393022304939E
:1004B4000723079303A9034800F0FEFBDAE700BF14
:1004C400004400400000024010B50446026813696D
:1004D40023F44053C1680B431361836802691A43D0
:1004E40043691A43C3691A430168CB6823F416436A
:1004F40023F00C031343CB600268536923F4407365
:1005040081690B4353610368314A934206D002F573
:100514008062934202D000F0AFFB01E000F0BCFB2C
:10052400E369B3F5004F29D00021031849411B1892
:1005340041F10001C90041EA5371DB0018186368F6
:100544004FEA83024FEA937341F10001FFF720FE63
:10055400204AA2FB00314909642303FB11031B0158
:100564003233A2FB03235B0903F0F00202EB011216
:1005740003F00F03216813448B6010BD002302189D
:1005840043EB0301121841F10001C90041EA527121
:10059400D200101841F10001626892185B41FFF724
:1005A400F7FD0C4AA2FB00314909642303FB110344
:1005B400DB003233A2FB03235B095A0002F4F87216
:1005C40002EB011203F00703216813448B60D4E7A4
:1005D400001001401F85EB5158B310B5044690F844
:1005E4003D300BB3242384F83D302268D36823F4D0
:1005F4000053D3602046FFF767FF2268136923F492
:10060400904313612268536923F02A0353612268DB
:10061400D36843F40053D36000202064202384F87B
:100624003D3084F83E3010BD80F83C30FFF716FFB3
:10063400D8E7012070470000002800F0E08170B581
:1006440082B00446036813F0010F3BD09F4B9B68B4
:1006540003F00C03042B2CD09C4B9B6803F00C037D
:10066400082B21D06368B3F5803F4FD0B3F5A02F9A
:1006740052D0964B1A6822F480321A601A6822F417
:1006840080221A606368002B50D000F0B3FC05464A
:100694008E4B1B6813F4003F14D100F0ABFC401BDD
:1006A4006428F5D90320B1E1884B5B6813F4800F0B
:1006B400D8D0864B1B6813F4003F03D06368002B2B
:1006C40000F09F81236813F0020F54D07F4B9B6886
:1006D40013F00C0F3ED07D4B9B6803F00C03082BEA
:1006E40033D0E368002B68D0794B01221A6000F004
:1006F40081FC0546754B1B6813F0020F54D100F0C2
:1007040079FC401B0228F5D903207FE16F4A136866
:1007140043F480331360B5E76C4B1A6842F48022CB
:100724001A601A6842F480321A60ABE700F062FC87
:100734000546664B1B6813F4003FC3D000F05AFC17
:10074400401B6428F5D9032060E1604B5B6813F417
:10075400800FC6D15D4B1B6813F0020F03D0E36812
:10076400012B40F05081594A136823F0F8032169A2
:1007740043EAC1031360236813F0080F42D063698E
:100784006BB3534B0122C3F8802E00F033FC0546B3
:100794004E4B5B6F13F0020F34D100F02BFC401B67
:1007A4000228F5D9032031E1484A136823F0F803FD
:1007B400216943EAC1031360DDE7454B00221A6057
:1007C40000F018FC0546414B1B6813F0020FD2D011
:1007D40000F010FC401B0228F5D9032016E13C4B25
:1007E4000022C3F8802E00F005FC0546374B5B6FF2
:1007F40013F0020F06D000F0FDFB401B0228F5D9D0
:10080400032003E1236813F0040F77D02F4B1B6CF4
:1008140013F0805F33D1002301932C4B1A6C42F008
:1008240080521A641B6C03F080530193019B0125D1
:10083400284B1B6813F4807F23D0A368012B34D08A
:10084400052B38D0214B1A6F22F001021A671A6F58
:1008540022F004021A67A368002B3DD000F0CAFB03
:1008640006461A4B1B6F13F0020F46D100F0C2FB71
:10087400801B41F288339842F3D90320C6E0002557
:10088400D6E7144A136843F48073136000F0B2FB94
:100894000646104B1B6813F4807FCED100F0AAFBF0
:1008A400801B0228F5D90320B0E0084A136F43F0F7
:1008B40001031367CFE7054B1A6F42F004021A676E
:1008C4001A6F42F001021A67C5E700BF0038024000
:1008D400000047420070004000F08CFB0646524B7B
:1008E4001B6F13F0020F08D000F084FB801B41F251
:1008F40088339842F3D9032088E0EDB9A369002B2B
:1009040000F08380484A926802F00C02082A51D011
:10091400022B17D0454B00221A6600F06BFB0446ED
:10092400414B1B6813F0007F42D000F063FB001BB7
:100934000228F5D9032069E03B4A136C23F0805365
:100944001364DBE7394B00221A6600F053FB0546BB
:10095400354B1B6813F0007F06D000F04BFB401BA7
:100964000228F5D9032051E0E369226A1343626A3D
:1009740043EA8213A26A5208013A43EA0243E26A52
:1009840043EA0263284A5360284B01221A6600F0A6
:1009940031FB0446244B1B6813F0007F06D100F0A2
:1009A40029FB001B0228F5D903202FE000202DE0AD
:1009B40000202BE0012B2BD01B4B5B6803F4800140
:1009C400E269914226D103F03F02216A8A4223D18F
:1009D400616A47F6C0721A40B2EB811F1ED103F45C
:1009E4004031A26A5208013AB1EB024F18D103F028
:1009F4007063E26AB3EB026F14D1002006E00120B9
:100A04007047012002E0012000E0002002B070BD28
:100A14000120FBE70120F9E70120F7E70120F5E7D2
:100A24000120F3E70120F1E70038024000004742CB
:100A340008B5334B9B6803F00C03042B5BD0082BE5
:100A44005BD12F4B5A6802F03F025B6813F4800FAE
:100A54002CD02B4B5868C0F388104FEA401CBCEBD9
:100A6400000C6EEB0E0E4FEA8E1343EA9C634FEAC2
:100A74008C11B1EB0C0163EB0E03DB0043EA517301
:100A8400C90011EB000C43F10003590200234FEAA3
:100A94004C2041EADC51FFF77BFB194B5B68C3F345
:100AA400014301335B00B0FBF3F027E0144B5868BB
:100AB400C0F388104FEA401CBCEB000C6EEB0E0E2A
:100AC4004FEA8E1343EA9C634FEA8C11B1EB0C019D
:100AD40063EB0E03DB0043EA5173C90011EB000C16
:100AE40043F10003990200234FEA8C2041EA9C5110
:100AF400FFF74EFBD1E7034800E0034808BD00BF01
:100B04000038024000127A000024F400002800F0AB
:100B14009B8070B50D4604464F4B1B6803F00703DA
:100B24008B4208D2CBB24C4A1370136803F007030C
:100B34008B4240F08B80236813F0020F17D013F020
:100B4400040F04D0454A936843F4E0539360236848
:100B540013F0080F04D0414A936843F46043936050
:100B64003E4A936823F0F003A1680B439360236823
:100B740013F0010F32D06368012B21D09A1E012A91
:100B840025D9364A126812F0020F61D033498A68B7
:100B940022F0030213438B6000F02CFA06462F4B1D
:100BA4009B6803F00C036268B3EB820F16D000F06D
:100BB40021FA801B41F288339842F0D9032042E0A5
:100BC400264A126812F4003FE0D101203BE0234A98
:100BD400126812F0007FD9D1012034E01E4B1B684B
:100BE40003F00703AB4207D9EAB21B4B1A701B6828
:100BF40003F00703AB422DD1236813F0040F06D092
:100C0400164A936823F4E053E1680B439360236826
:100C140013F0080F07D0114A936823F46043216945
:100C240043EAC1039360FFF703FF0C4B9B68C3F3D4
:100C340003130B4AD35CD8400A4B18600A4B18685C
:100C440000F08CF9002070BD012070470120FAE704
:100C54000120F8E70120F6E7003C0240003802409A
:100C6400CC1300080800002004000020014B186881
:100C7400704700BF0800002008B5FFF7F7FF044BDA
:100C84009B68C3F38223034AD35CD84008BD00BFEA
:100C940000380240DC13000808B5FFF7E7FF044BF7
:100CA4009B68C3F34233034AD35CD84008BD00BFFA
:100CB40000380240DC13000800230F2B00F2D78019
:100CC40070B582B065E085684FEA430E032404FAE8
:100CD4000EF425EA0405CC6804FA0EF42C4384606F
:100CE400446824EA02044A68C2F300129A40224388
:100CF40042605CE0DC08083450F8242003F0070567
:100D0400AD004FF00F0E0EFA05FE22EA0E0E0A6930
:100D1400AA4042EA0E0240F824205CE0042200E0EB
:100D2400002202FA0EF22A430234514D45F82420DF
:100D3400504A14686FEA0C0224EA0C054E6816F453
:100D4400803F01D04CEA04054A4C2560646802EAFD
:100D540004054E6816F4003F01D04CEA0405454CE6
:100D64006560A46802EA04054E6816F4801F01D089
:100D74004CEA04053F4CA560E46822404D6815F434
:100D8400001F01D04CEA04023A4CE26001330F2BFD
:100D94006BD801229A400C6804EA020C32EA04047B
:100DA400F4D14C6804F00304013C012C8BD94A684B
:100DB40002F00302032A09D0C4685D000322AA409A
:100DC40024EA02048A68AA402243C2604A6802F004
:100DD4000302022A8ED004684FEA430E032202FA69
:100DE4000EF224EA02044A6802F0030202FA0EF246
:100DF400224302604A6812F4403FC7D000220192A5
:100E04001D4A546C44F480445464526C02F480428D
:100E14000192019A9C08A51C154A52F8255003F02A
:100E2400030E4FEA8E0E0F2202FA0EF225EA020595
:100E3400124A90423FF474AF02F5806290420ED0A1
:100E440002F5806290420CD002F5806290420AD092
:100E540002F5806290423FF461AF072261E701220C
:100E64005FE702225DE703225BE702B070BD7047D3
:100E740000380140003C01400038024000000240BC
:100E84000AB181617047090481617047436901EACD
:100E9400030221EA030141EA024181617047000033
:100EA400074AD36823F4E0631B041B0C000200F41C
:100EB400E060034343F0BF6343F40033D3607047FF
:100EC40000ED00E000B5194BDB68C3F30223C3F166
:100ED400070CBCF1040F28BF4FF0040C03F1040EFF
:100EE400BEF1060F18D9033B4FF0FF3E0EFA0CFC7F
:100EF40021EA0C0199400EFA03FE22EA0E020A438B
:100F040000280BDB1201D2B200F1604000F5614011
:100F140080F800235DF804FB0023E5E700F00F00F0
:100F24001201D2B2024B1A54F4E700BF00ED00E004
:100F340014ED00E00138B0F1807F0BD24FF0E023D4
:100F44005861054AF02182F8231000209861072295
:100F54001A6170470120704700ED00E010B50446A7
:100F64000E4B1A784FF47A73B3FBF2F30C4A106801
:100F7400B0FBF3F0FFF7DEFF68B90F2C01D90120B5
:100F84000AE0002221464FF0FF30FFF79BFF054B9C
:100F94001C60002000E0012010BD00BF0000002004
:100FA400080000200400002008B50B4B1A6842F426
:100FB40000721A601A6842F480621A601A6842F475
:100FC40080721A600320FFF76BFF0020FFF7C6FF53
:100FD400FFF724FA002008BD003C0240034A1168D0
:100FE400034B1B780B441360704700BF6C00002058
:100FF40000000020014B1868704700BF6C000020FF
:1010040038B50446FFF7F6FF0546B4F1FF3F02D0BA
:10101400044B1B781C44FFF7EDFF401BA042FAD39E
:1010240038BD00BF00000020034AD2F8883043F4E2
:101034007003C2F88830704700ED00E0DFF834D068
:101044000D480E490E4A002302E0D458C45004331C
:10105400C4188C42F9D30B4A0B4C002301E01360F3
:101064000432A242FBD3FFF7DFFF00F011F8FFF7D1
:10107400B5F9704700800120000000200C0000201A
:10108400F41300080C00002070000020FEE70000AC
:1010940070B50D4D0D4C641BA4100026A64209D159
:1010A4000B4D0C4C00F084F9641BA4100026A642DE
:1010B40005D170BD55F8043B98470136EEE755F865
:1010C400043B98470136F2E7EC130008EC130008E0
:1010D400EC130008F013000802440346934200D1C5
:1010E400704703F8011BF9E72DE9F047089E0D4608
:1010F40004460F46002B4AD18A42944665D9B2FA77
:1011040082F343B102FA03FCC3F120029F4020FAA8
:1011140002F217439C404FEA1C4E1FFA8CF5B7FBB2
:10112400FEF1220C0EFB117742EA074201FB05F0A7
:1011340090420AD91CEB020201F1FF3780F01C81B6
:10114400904240F2198102396244121AA4B2B2FBED
:10115400FEF00EFB102244EA024400FB05F5A54212
:101164000AD91CEB040400F1FF3280F00781A54288
:1011740040F204816444023840EA0140641B0021C7
:101184001EB1DC400023C6E90043BDE8F0878B4272
:1011940008D9002E00F0ED800021C6E900050846BC
:1011A400BDE8F087B3FA83F1002949D1AB4202D3F9
:1011B400824200F2F880841A65EB0302012017468C
:1011C400002EE2D0C6E90047DFE702B9FFDEB2FA3B
:1011D40082F3002B40F090808A1A4FEA1C471FFAD2
:1011E4008CFE0121B2FBF7F507FB1520220C42EA25
:1011F40000420EFB05F0904208D91CEB020205F1F7
:10120400FF3802D2904200F2CB804546121AA4B2B3
:10121400B2FBF7F007FB102244EA02440EFB00FE87
:10122400A64508D91CEB040400F1FF3202D2A645FE
:1012340000F2BB801046A4EB0E0440EA05409FE791
:10124400C1F120078B4022FA07FC4CEA030C05FA93
:1012540001F420FA07F3FD404FEA1C492343B5FB90
:10126400F9F81FFA8CFE09FB18551C0C44EA0544D6
:1012740008FB0EF5A54202FA01F200FA01F00BD9BF
:101284001CEB040408F1FF3A80F08880A54240F288
:101294008580A8F102086444641B9DB2B4FBF9F391
:1012A40009FB134445EA044403FB0EFEA64508D992
:1012B4001CEB040403F1FF356CD2A6456AD9023B4A
:1012C400644443EA0843A3FB0295A4EB0E04AC4236
:1012D400C846AE4656D353D056B1B0EB080264EBC1
:1012E4000E0404FA07F7CA40CC401743C6E9007459
:1012F40018460021BDE8F087C3F1200102FA03FC7F
:1013040020FA01F225FA01F19D402A434FEA1C47D5
:101314001FFA8CFEB1FBF7F007FB1015110C41EA24
:10132400054100FB0EF58D4204FA03F408D91CEBC9
:10133400010100F1FF382FD28D422DD902386144CA
:10134400491B92B2B1FBF7F507FB151142EA0142C2
:1013540005FB0EF1914208D91CEB020205F1FF389E
:1013640016D2914214D9023D6244521A45EA004110
:1013740038E73146304608E73946E6E61046FBE6EC
:101384004845A9D2B9EB020865EB0C0E013BA3E773
:101394004546EAE72B4694E74046D1E7D0467BE74B
:1013A400023D624432E708460AE76444023842E7F1
:1013B400F8B500BFF8BC08BC9E467047F8B500BF3E
:0813C400F8BC08BC9E4670470E
:1013CC0000000000000000000102030406070809E9
:0813DC000000000001020304FF
:0813E40008FDFF7F010000007D
:0413EC0031020008C2
:0413F00009020008E6
:0C13F40001000000100000000024F400C4
:04000005080010419E
:00000001FF
